{
  "contractName": "CALKIco",
  "abi": [
    {
      "inputs": [
        {
          "internalType": "uint256",
          "name": "_price",
          "type": "uint256"
        },
        {
          "internalType": "address payable",
          "name": "seller",
          "type": "address"
        },
        {
          "internalType": "address",
          "name": "erc20Address",
          "type": "address"
        }
      ],
      "stateMutability": "nonpayable",
      "type": "constructor"
    },
    {
      "inputs": [],
      "name": "price",
      "outputs": [
        {
          "internalType": "uint256",
          "name": "",
          "type": "uint256"
        }
      ],
      "stateMutability": "view",
      "type": "function",
      "constant": true
    },
    {
      "inputs": [],
      "name": "token",
      "outputs": [
        {
          "internalType": "contract FirstErc20",
          "name": "",
          "type": "address"
        }
      ],
      "stateMutability": "view",
      "type": "function",
      "constant": true
    },
    {
      "stateMutability": "payable",
      "type": "receive",
      "payable": true
    },
    {
      "inputs": [],
      "name": "getCurrentPrice",
      "outputs": [
        {
          "internalType": "uint256",
          "name": "",
          "type": "uint256"
        }
      ],
      "stateMutability": "view",
      "type": "function",
      "constant": true
    },
    {
      "inputs": [
        {
          "internalType": "uint256",
          "name": "nbTokens",
          "type": "uint256"
        }
      ],
      "name": "getPricePerNbTokens",
      "outputs": [
        {
          "internalType": "uint256",
          "name": "",
          "type": "uint256"
        }
      ],
      "stateMutability": "view",
      "type": "function",
      "constant": true
    },
    {
      "inputs": [
        {
          "internalType": "uint256",
          "name": "_buyPrice",
          "type": "uint256"
        }
      ],
      "name": "getNbTokensPerPrice",
      "outputs": [
        {
          "internalType": "uint256",
          "name": "",
          "type": "uint256"
        }
      ],
      "stateMutability": "view",
      "type": "function",
      "constant": true
    },
    {
      "inputs": [
        {
          "internalType": "uint256",
          "name": "nbTokens",
          "type": "uint256"
        }
      ],
      "name": "buy",
      "outputs": [
        {
          "internalType": "bool",
          "name": "",
          "type": "bool"
        }
      ],
      "stateMutability": "payable",
      "type": "function",
      "payable": true
    }
  ],
  "bytecode": "0x608060405234801561001057600080fd5b5060405161089d38038061089d8339818101604052606081101561003357600080fd5b810190808051906020019092919080519060200190929190805190602001909291905050508260018190555081600260006101000a81548173ffffffffffffffffffffffffffffffffffffffff021916908373ffffffffffffffffffffffffffffffffffffffff160217905550806000806101000a81548173ffffffffffffffffffffffffffffffffffffffff021916908373ffffffffffffffffffffffffffffffffffffffff16021790555060008054906101000a900473ffffffffffffffffffffffffffffffffffffffff1673ffffffffffffffffffffffffffffffffffffffff1663313ce5676040518163ffffffff1660e01b815260040160206040518083038186803b15801561014657600080fd5b505afa15801561015a573d6000803e3d6000fd5b505050506040513d602081101561017057600080fd5b810190808051906020019092919050505060ff16600a0a6003819055505050506106fe8061019f6000396000f3fe6080604052600436106100595760003560e01c80631ec2242514610077578063a035b1fe146100c6578063d712750b146100f1578063d96a094a14610140578063eb91d37e14610184578063fc0c546a146101af57610072565b366100725761006f61006a346101f0565b610267565b50005b600080fd5b34801561008357600080fd5b506100b06004803603602081101561009a57600080fd5b810190808035906020019092919050505061059b565b6040518082815260200191505060405180910390f35b3480156100d257600080fd5b506100db610612565b6040518082815260200191505060405180910390f35b3480156100fd57600080fd5b5061012a6004803603602081101561011457600080fd5b81019080803590602001909291905050506101f0565b6040518082815260200191505060405180910390f35b61016c6004803603602081101561015657600080fd5b8101908080359060200190929190505050610267565b60405180821515815260200191505060405180910390f35b34801561019057600080fd5b50610199610618565b6040518082815260200191505060405180910390f35b3480156101bb57600080fd5b506101c4610622565b604051808273ffffffffffffffffffffffffffffffffffffffff16815260200191505060405180910390f35b60008060015460035484028161020257fe5b0490506000811161025e576040517f08c379a00000000000000000000000000000000000000000000000000000000081526004018080602001828103825260388152602001806106916038913960400191505060405180910390fd5b80915050919050565b60008034116102de576040517f08c379a00000000000000000000000000000000000000000000000000000000081526004018080602001828103825260208152602001807f49434f3a2070757263686173652070726963652063616e206e6f74206265203081525060200191505060405180910390fd5b60008211610354576040517f08c379a000000000000000000000000000000000000000000000000000000000815260040180806020018281038252601e8152602001807f49434f3a2043616e206e6f74207075726368617365203020746f6b656e73000081525060200191505060405180910390fd5b61035d8261059b565b3410156103b5576040517f08c379a00000000000000000000000000000000000000000000000000000000081526004018080602001828103825260238152602001806106476023913960400191505060405180910390fd5b60006103c08361059b565b90506000813403905060008054906101000a900473ffffffffffffffffffffffffffffffffffffffff1673ffffffffffffffffffffffffffffffffffffffff166323b872dd600260009054906101000a900473ffffffffffffffffffffffffffffffffffffffff1633876040518463ffffffff1660e01b8152600401808473ffffffffffffffffffffffffffffffffffffffff1681526020018373ffffffffffffffffffffffffffffffffffffffff1681526020018281526020019350505050602060405180830381600087803b15801561049a57600080fd5b505af11580156104ae573d6000803e3d6000fd5b505050506040513d60208110156104c457600080fd5b810190808051906020019092919050505050600260009054906101000a900473ffffffffffffffffffffffffffffffffffffffff1673ffffffffffffffffffffffffffffffffffffffff166108fc839081150290604051600060405180830381858888f1935050505015801561053e573d6000803e3d6000fd5b506000811115610590573373ffffffffffffffffffffffffffffffffffffffff166108fc829081150290604051600060405180830381858888f1935050505015801561058e573d6000803e3d6000fd5b505b600192505050919050565b6000806003546001548402816105ad57fe5b04905060008111610609576040517f08c379a000000000000000000000000000000000000000000000000000000000815260040180806020018281038252602781526020018061066a6027913960400191505060405180910390fd5b80915050919050565b60015481565b6000600154905090565b60008054906101000a900473ffffffffffffffffffffffffffffffffffffffff168156fe49434f3a204e6f7420656e6f7567682065746865727320666f7220707572636861736543414c4b49636f3a204e656564206120686967686572206e756d626572206f6620746f6b656e7343414c4b49636f3a204e65656420612068696768657220616d6f756e74206f6620657468657220666f7220627579696e6720746f6b656e73a26469706673582212202255ae670c60bd3ecbb554421c1fd26befb3b228bc630642deb2ba1c202efbbf64736f6c634300060c0033",
  "immutableReferences": {},
  "source": " // SPDX-License-Identifier: MIT\npragma solidity ^0.6.0;\nimport \"./FirstErc20.sol\";\n\n// price = 100000000000000000 wei d'ether (0.1 ether)\ncontract CALKIco {\n    // Declare a FirstErc20 contract\n    FirstErc20 public token;\n\n    // The price of 1 token in wei;\n    uint256 public price;\n\n    // Address of token seller\n    address payable private _seller;\n\n    uint256 private _decimal;\n\n    constructor(\n        uint256 _price, // price pour 1 CALCK 0.1 Ether 100000000000000000\n        address payable seller, \n        address erc20Address\n    ) public {\n        price = _price;\n        _seller = seller;\n        token = FirstErc20(erc20Address);\n        _decimal = (10**uint256(token.decimals()));\n    }\n\n    function getCurrentPrice() public view returns (uint256) {\n        return price;\n    }\n\n    function getPricePerNbTokens(uint256 nbTokens) public view returns (uint256) {\n        uint256 buyPrice = (nbTokens * price) / _decimal;\n        require(buyPrice > 0, \"CALKIco: Need a higher number of tokens\");\n        return buyPrice;\n    }\n\n    function getNbTokensPerPrice(uint256 _buyPrice) public view returns (uint256) {\n        uint256 nbTokens = (_buyPrice * _decimal) / price;\n        require(nbTokens > 0, \"CALKIco: Need a higher amount of ether for buying tokens\");\n        return nbTokens;\n    }\n\n    receive() external payable {\n        buy(getNbTokensPerPrice(msg.value));\n    }\n\n    // nbTokens en wei de CALC \n    function buy(uint256 nbTokens) public payable returns (bool) {\n        // check if ether > 0\n        require(msg.value > 0, \"ICO: purchase price can not be 0\");\n        // check if nbTokens > 0\n        require(nbTokens > 0, \"ICO: Can not purchase 0 tokens\");\n        // check if enough ethers for nbTokens\n        require(msg.value >= getPricePerNbTokens(nbTokens), \"ICO: Not enough ethers for purchase\");\n        uint256 _realPrice = getPricePerNbTokens(nbTokens);\n        uint256 _remaining = msg.value - _realPrice;\n        token.transferFrom(_seller, msg.sender, nbTokens);\n        _seller.transfer(_realPrice);\n        if (_remaining > 0) {\n            msg.sender.transfer(_remaining);\n        }\n        return true;\n    }\n}\n\n",
  "sourcePath": "/Users/itanis/Desktop/projets/Ico-truffle/contracts/CALCIco.sol",
  "compiler": {
    "name": "solc",
    "version": "0.6.12+commit.27d51765.Linux.g++"
  },
  "schemaVersion": "3.3.1",
  "updatedAt": "2020-12-29T11:54:43.741Z",
  "networkType": "ethereum",
  "devdoc": {
    "kind": "dev",
    "methods": {},
    "version": 1
  },
  "userdoc": {
    "kind": "user",
    "methods": {},
    "version": 1
  }
}