{
  "contractName": "FirstErc20",
  "abi": [
    {
      "inputs": [
        {
          "internalType": "string",
          "name": "name",
          "type": "string"
        },
        {
          "internalType": "string",
          "name": "symbol",
          "type": "string"
        },
        {
          "internalType": "uint8",
          "name": "decimals",
          "type": "uint8"
        },
        {
          "internalType": "uint256",
          "name": "amount2Owner",
          "type": "uint256"
        },
        {
          "internalType": "uint256",
          "name": "cap",
          "type": "uint256"
        },
        {
          "internalType": "address payable",
          "name": "owner",
          "type": "address"
        }
      ],
      "stateMutability": "nonpayable",
      "type": "constructor"
    },
    {
      "anonymous": false,
      "inputs": [
        {
          "indexed": true,
          "internalType": "address",
          "name": "_owner",
          "type": "address"
        },
        {
          "indexed": true,
          "internalType": "address",
          "name": "_spender",
          "type": "address"
        },
        {
          "indexed": false,
          "internalType": "uint256",
          "name": "_value",
          "type": "uint256"
        }
      ],
      "name": "Approval",
      "type": "event"
    },
    {
      "anonymous": false,
      "inputs": [
        {
          "indexed": true,
          "internalType": "address",
          "name": "_from",
          "type": "address"
        },
        {
          "indexed": true,
          "internalType": "address",
          "name": "_to",
          "type": "address"
        },
        {
          "indexed": false,
          "internalType": "uint256",
          "name": "_value",
          "type": "uint256"
        }
      ],
      "name": "Transfer",
      "type": "event"
    },
    {
      "inputs": [],
      "name": "name",
      "outputs": [
        {
          "internalType": "string",
          "name": "",
          "type": "string"
        }
      ],
      "stateMutability": "view",
      "type": "function",
      "constant": true
    },
    {
      "inputs": [],
      "name": "symbol",
      "outputs": [
        {
          "internalType": "string",
          "name": "",
          "type": "string"
        }
      ],
      "stateMutability": "view",
      "type": "function",
      "constant": true
    },
    {
      "inputs": [],
      "name": "decimals",
      "outputs": [
        {
          "internalType": "uint8",
          "name": "",
          "type": "uint8"
        }
      ],
      "stateMutability": "view",
      "type": "function",
      "constant": true
    },
    {
      "inputs": [],
      "name": "totalSupply",
      "outputs": [
        {
          "internalType": "uint256",
          "name": "",
          "type": "uint256"
        }
      ],
      "stateMutability": "view",
      "type": "function",
      "constant": true
    },
    {
      "inputs": [],
      "name": "cap",
      "outputs": [
        {
          "internalType": "uint256",
          "name": "",
          "type": "uint256"
        }
      ],
      "stateMutability": "view",
      "type": "function",
      "constant": true
    },
    {
      "inputs": [
        {
          "internalType": "address",
          "name": "_account",
          "type": "address"
        }
      ],
      "name": "balanceOf",
      "outputs": [
        {
          "internalType": "uint256",
          "name": "",
          "type": "uint256"
        }
      ],
      "stateMutability": "view",
      "type": "function",
      "constant": true
    },
    {
      "inputs": [
        {
          "internalType": "address",
          "name": "_recipient",
          "type": "address"
        },
        {
          "internalType": "uint256",
          "name": "_amount",
          "type": "uint256"
        }
      ],
      "name": "transfer",
      "outputs": [
        {
          "internalType": "bool",
          "name": "",
          "type": "bool"
        }
      ],
      "stateMutability": "nonpayable",
      "type": "function"
    },
    {
      "inputs": [
        {
          "internalType": "address",
          "name": "_spender",
          "type": "address"
        },
        {
          "internalType": "uint256",
          "name": "_amount",
          "type": "uint256"
        }
      ],
      "name": "approve",
      "outputs": [
        {
          "internalType": "bool",
          "name": "",
          "type": "bool"
        }
      ],
      "stateMutability": "nonpayable",
      "type": "function"
    },
    {
      "inputs": [
        {
          "internalType": "address",
          "name": "_owner",
          "type": "address"
        },
        {
          "internalType": "address",
          "name": "_spender",
          "type": "address"
        }
      ],
      "name": "allowance",
      "outputs": [
        {
          "internalType": "uint256",
          "name": "",
          "type": "uint256"
        }
      ],
      "stateMutability": "view",
      "type": "function",
      "constant": true
    },
    {
      "inputs": [
        {
          "internalType": "address",
          "name": "_sender",
          "type": "address"
        },
        {
          "internalType": "address",
          "name": "_recipient",
          "type": "address"
        },
        {
          "internalType": "uint256",
          "name": "_amount",
          "type": "uint256"
        }
      ],
      "name": "transferFrom",
      "outputs": [
        {
          "internalType": "bool",
          "name": "",
          "type": "bool"
        }
      ],
      "stateMutability": "nonpayable",
      "type": "function"
    },
    {
      "inputs": [
        {
          "internalType": "address",
          "name": "_account",
          "type": "address"
        },
        {
          "internalType": "uint256",
          "name": "_amount",
          "type": "uint256"
        }
      ],
      "name": "mint",
      "outputs": [
        {
          "internalType": "bool",
          "name": "",
          "type": "bool"
        }
      ],
      "stateMutability": "nonpayable",
      "type": "function"
    },
    {
      "inputs": [
        {
          "internalType": "address",
          "name": "_account",
          "type": "address"
        },
        {
          "internalType": "uint256",
          "name": "_amount",
          "type": "uint256"
        }
      ],
      "name": "burn",
      "outputs": [
        {
          "internalType": "bool",
          "name": "",
          "type": "bool"
        }
      ],
      "stateMutability": "nonpayable",
      "type": "function"
    }
  ],
  "bytecode": "0x60806040523480156200001157600080fd5b506040516200158c3803806200158c833981810160405260c08110156200003757600080fd5b81019080805160405193929190846401000000008211156200005857600080fd5b838201915060208201858111156200006f57600080fd5b82518660018202830111640100000000821117156200008d57600080fd5b8083526020830192505050908051906020019080838360005b83811015620000c3578082015181840152602081019050620000a6565b50505050905090810190601f168015620000f15780820380516001836020036101000a031916815260200191505b50604052602001805160405193929190846401000000008211156200011557600080fd5b838201915060208201858111156200012c57600080fd5b82518660018202830111640100000000821117156200014a57600080fd5b8083526020830192505050908051906020019080838360005b838110156200018057808201518184015260208101905062000163565b50505050905090810190601f168015620001ae5780820380516001836020036101000a031916815260200191505b50604052602001805190602001909291908051906020019092919080519060200190929190805190602001909291905050508282101562000257576040517f08c379a00000000000000000000000000000000000000000000000000000000081526004018080602001828103825260198152602001807f45524332303a20616d6f756e742065786365656473206361700000000000000081525060200191505060405180910390fd5b85600290805190602001906200026f92919062000364565b5084600390805190602001906200028892919062000364565b5083600460006101000a81548160ff021916908360ff160217905550816006819055508260058190555080600760006101000a81548173ffffffffffffffffffffffffffffffffffffffff021916908373ffffffffffffffffffffffffffffffffffffffff16021790555082600080600760009054906101000a900473ffffffffffffffffffffffffffffffffffffffff1673ffffffffffffffffffffffffffffffffffffffff1673ffffffffffffffffffffffffffffffffffffffff168152602001908152602001600020819055505050505050506200040a565b828054600181600116156101000203166002900490600052602060002090601f016020900481019282601f10620003a757805160ff1916838001178555620003d8565b82800160010185558215620003d8579182015b82811115620003d7578251825591602001919060010190620003ba565b5b509050620003e79190620003eb565b5090565b5b8082111562000406576000816000905550600101620003ec565b5090565b611172806200041a6000396000f3fe608060405234801561001057600080fd5b50600436106100b45760003560e01c806340c10f191161007157806340c10f191461028157806370a08231146102e557806395d89b411461033d5780639dc29fac146103c0578063a9059cbb14610424578063dd62ed3e14610488576100b4565b806306fdde03146100b9578063095ea7b31461013c57806318160ddd146101a057806323b872dd146101be578063313ce56714610242578063355274ea14610263575b600080fd5b6100c1610500565b6040518080602001828103825283818151815260200191508051906020019080838360005b838110156101015780820151818401526020810190506100e6565b50505050905090810190601f16801561012e5780820380516001836020036101000a031916815260200191505b509250505060405180910390f35b6101886004803603604081101561015257600080fd5b81019080803573ffffffffffffffffffffffffffffffffffffffff169060200190929190803590602001909291905050506105a2565b60405180821515815260200191505060405180910390f35b6101a8610694565b6040518082815260200191505060405180910390f35b61022a600480360360608110156101d457600080fd5b81019080803573ffffffffffffffffffffffffffffffffffffffff169060200190929190803573ffffffffffffffffffffffffffffffffffffffff1690602001909291908035906020019092919050505061069e565b60405180821515815260200191505060405180910390f35b61024a61099e565b604051808260ff16815260200191505060405180910390f35b61026b6109b5565b6040518082815260200191505060405180910390f35b6102cd6004803603604081101561029757600080fd5b81019080803573ffffffffffffffffffffffffffffffffffffffff169060200190929190803590602001909291905050506109bf565b60405180821515815260200191505060405180910390f35b610327600480360360208110156102fb57600080fd5b81019080803573ffffffffffffffffffffffffffffffffffffffff169060200190929190505050610baf565b6040518082815260200191505060405180910390f35b610345610bf7565b6040518080602001828103825283818151815260200191508051906020019080838360005b8381101561038557808201518184015260208101905061036a565b50505050905090810190601f1680156103b25780820380516001836020036101000a031916815260200191505b509250505060405180910390f35b61040c600480360360408110156103d657600080fd5b81019080803573ffffffffffffffffffffffffffffffffffffffff16906020019092919080359060200190929190505050610c99565b60405180821515815260200191505060405180910390f35b6104706004803603604081101561043a57600080fd5b81019080803573ffffffffffffffffffffffffffffffffffffffff16906020019092919080359060200190929190505050610e9e565b60405180821515815260200191505060405180910390f35b6104ea6004803603604081101561049e57600080fd5b81019080803573ffffffffffffffffffffffffffffffffffffffff169060200190929190803573ffffffffffffffffffffffffffffffffffffffff16906020019092919050505061103e565b6040518082815260200191505060405180910390f35b606060028054600181600116156101000203166002900480601f0160208091040260200160405190810160405280929190818152602001828054600181600116156101000203166002900480156105985780601f1061056d57610100808354040283529160200191610598565b820191906000526020600020905b81548152906001019060200180831161057b57829003601f168201915b5050505050905090565b600081600160003373ffffffffffffffffffffffffffffffffffffffff1673ffffffffffffffffffffffffffffffffffffffff16815260200190815260200160002060008573ffffffffffffffffffffffffffffffffffffffff1673ffffffffffffffffffffffffffffffffffffffff168152602001908152602001600020819055508273ffffffffffffffffffffffffffffffffffffffff163373ffffffffffffffffffffffffffffffffffffffff167f8c5be1e5ebec7d5bd14f71427d1e84f3dd0314c0f7b2291e5b200ac8c7c3b925846040518082815260200191505060405180910390a36001905092915050565b6000600554905090565b6000816000808673ffffffffffffffffffffffffffffffffffffffff1673ffffffffffffffffffffffffffffffffffffffff168152602001908152602001600020541015610737576040517f08c379a00000000000000000000000000000000000000000000000000000000081526004018080602001828103825260268152602001806110ef6026913960400191505060405180910390fd5b81600160008673ffffffffffffffffffffffffffffffffffffffff1673ffffffffffffffffffffffffffffffffffffffff16815260200190815260200160002060003373ffffffffffffffffffffffffffffffffffffffff1673ffffffffffffffffffffffffffffffffffffffff16815260200190815260200160002054101561080c576040517f08c379a00000000000000000000000000000000000000000000000000000000081526004018080602001828103825260288152602001806111156028913960400191505060405180910390fd5b816000808673ffffffffffffffffffffffffffffffffffffffff1673ffffffffffffffffffffffffffffffffffffffff16815260200190815260200160002060008282540392505081905550816000808573ffffffffffffffffffffffffffffffffffffffff1673ffffffffffffffffffffffffffffffffffffffff1681526020019081526020016000206000828254019250508190555081600160008673ffffffffffffffffffffffffffffffffffffffff1673ffffffffffffffffffffffffffffffffffffffff16815260200190815260200160002060003373ffffffffffffffffffffffffffffffffffffffff1673ffffffffffffffffffffffffffffffffffffffff168152602001908152602001600020600082825403925050819055508273ffffffffffffffffffffffffffffffffffffffff168473ffffffffffffffffffffffffffffffffffffffff167fddf252ad1be2c89b69c2b068fc378daa952ba7f163c4a11628f55a4df523b3ef846040518082815260200191505060405180910390a3600190509392505050565b6000600460009054906101000a900460ff16905090565b6000600654905090565b6000600760009054906101000a900473ffffffffffffffffffffffffffffffffffffffff1673ffffffffffffffffffffffffffffffffffffffff163373ffffffffffffffffffffffffffffffffffffffff1614610a67576040517f08c379a00000000000000000000000000000000000000000000000000000000081526004018080602001828103825260298152602001806110c66029913960400191505060405180910390fd5b60065482600554011115610ae3576040517f08c379a00000000000000000000000000000000000000000000000000000000081526004018080602001828103825260138152602001807f45524332303a206361702065786365656465640000000000000000000000000081525060200191505060405180910390fd5b81600560008282540192505081905550816000808573ffffffffffffffffffffffffffffffffffffffff1673ffffffffffffffffffffffffffffffffffffffff168152602001908152602001600020600082825401925050819055508273ffffffffffffffffffffffffffffffffffffffff16600073ffffffffffffffffffffffffffffffffffffffff167fddf252ad1be2c89b69c2b068fc378daa952ba7f163c4a11628f55a4df523b3ef846040518082815260200191505060405180910390a36001905092915050565b60008060008373ffffffffffffffffffffffffffffffffffffffff1673ffffffffffffffffffffffffffffffffffffffff168152602001908152602001600020549050919050565b606060038054600181600116156101000203166002900480601f016020809104026020016040519081016040528092919081815260200182805460018160011615610100020316600290048015610c8f5780601f10610c6457610100808354040283529160200191610c8f565b820191906000526020600020905b815481529060010190602001808311610c7257829003601f168201915b5050505050905090565b6000600760009054906101000a900473ffffffffffffffffffffffffffffffffffffffff1673ffffffffffffffffffffffffffffffffffffffff163373ffffffffffffffffffffffffffffffffffffffff1614610d41576040517f08c379a00000000000000000000000000000000000000000000000000000000081526004018080602001828103825260298152602001806110c66029913960400191505060405180910390fd5b6000826000808673ffffffffffffffffffffffffffffffffffffffff1673ffffffffffffffffffffffffffffffffffffffff168152602001908152602001600020541015610dcd576000808573ffffffffffffffffffffffffffffffffffffffff1673ffffffffffffffffffffffffffffffffffffffff16815260200190815260200160002054610dcf565b825b905080600560008282540392505081905550806000808673ffffffffffffffffffffffffffffffffffffffff1673ffffffffffffffffffffffffffffffffffffffff16815260200190815260200160002060008282540392505081905550600073ffffffffffffffffffffffffffffffffffffffff168473ffffffffffffffffffffffffffffffffffffffff167fddf252ad1be2c89b69c2b068fc378daa952ba7f163c4a11628f55a4df523b3ef856040518082815260200191505060405180910390a3600191505092915050565b6000816000803373ffffffffffffffffffffffffffffffffffffffff1673ffffffffffffffffffffffffffffffffffffffff168152602001908152602001600020541015610f37576040517f08c379a00000000000000000000000000000000000000000000000000000000081526004018080602001828103825260268152602001806110ef6026913960400191505060405180910390fd5b816000803373ffffffffffffffffffffffffffffffffffffffff1673ffffffffffffffffffffffffffffffffffffffff16815260200190815260200160002060008282540392505081905550816000808573ffffffffffffffffffffffffffffffffffffffff1673ffffffffffffffffffffffffffffffffffffffff168152602001908152602001600020600082825401925050819055508273ffffffffffffffffffffffffffffffffffffffff163373ffffffffffffffffffffffffffffffffffffffff167fddf252ad1be2c89b69c2b068fc378daa952ba7f163c4a11628f55a4df523b3ef846040518082815260200191505060405180910390a36001905092915050565b6000600160008473ffffffffffffffffffffffffffffffffffffffff1673ffffffffffffffffffffffffffffffffffffffff16815260200190815260200160002060008373ffffffffffffffffffffffffffffffffffffffff1673ffffffffffffffffffffffffffffffffffffffff1681526020019081526020016000205490509291505056fe45524332303a204f6e6c79206f776e65722063616e20706572666f726d207468697320616374696f6e45524332303a207472616e7366657220616d6f756e7420657863656564732062616c616e636545524332303a207472616e7366657220616d6f756e74206578636565647320616c6c6f77616e6365a2646970667358221220325366e7068e39c9af7dca033fb09f63a5caa73d94153e5ff8377739b849786564736f6c634300060c0033",
  "immutableReferences": {},
  "source": " // SPDX-License-Identifier: MIT\npragma solidity ^0.6.0;\n\ncontract FirstErc20 {\n    // Mapping from account addresses to current balance.\n    mapping(address => uint256) private _balances;\n\n    // Mapping from account addresses to a mapping of spender addresses to an amount of allowance.\n    mapping(address => mapping(address => uint256)) private _allowances;\n\n    // Name of the token\n    string private _name;\n\n    // Symbol of the token\n    string private _symbol;\n\n    // Number of decimals the token uses\n    // for example 8, means to divide the token amount by 100000000 to get its user representation.\n    uint8 private _decimals;\n\n    // Total of the token supply\n    uint256 private _totalSupply;\n\n    // Maximum amount of the token supply\n    uint256 private _cap;\n\n    // Address of the owner, used for administrative and sensitive function.\n    address payable private _ownerAddress;\n\n    constructor(\n        string memory name,\n        string memory symbol,\n        uint8 decimals,\n        uint256 amount2Owner,\n        uint256 cap,\n        address payable owner\n    ) public {\n        require(cap >= amount2Owner, \"ERC20: amount exceeds cap\");\n        _name = name;\n        _symbol = symbol;\n        _decimals = decimals;\n        _cap = cap;\n        _totalSupply = amount2Owner;\n        _ownerAddress = owner;\n        _balances[_ownerAddress] = amount2Owner;\n    }\n\n    // A modifier for checking if the msg.sender is the owner.\n    modifier onlyOwner() {\n        require(msg.sender == _ownerAddress, \"ERC20: Only owner can perform this action\");\n        _;\n    }\n\n    // Returns the name of the token\n    function name() public view returns (string memory) {\n        return _name;\n    }\n\n    // Returns the symbol of the token\n    function symbol() public view returns (string memory) {\n        return _symbol;\n    }\n\n    // Return the nb of decimals the token uses\n    function decimals() public view returns (uint8) {\n        return _decimals;\n    }\n\n    // Returns the amount of tokens in existence\n    function totalSupply() public view returns (uint256) {\n        return _totalSupply;\n    }\n\n    // Returns the max amount of tokens in existence\n    function cap() public view returns (uint256) {\n        return _cap;\n    }\n\n    // Returns the amount of tokens owned by `_account`.\n    function balanceOf(address _account) public view returns (uint256) {\n        return _balances[_account];\n    }\n\n    // Moves `_amount` tokens from the caller's account to `_recipient`.\n    // Returns a boolean value indicating whether the operation succeeded.\n    function transfer(address _recipient, uint256 _amount) public returns (bool) {\n        require(_balances[msg.sender] >= _amount, \"ERC20: transfer amount exceeds balance\");\n        _balances[msg.sender] -= _amount;\n        _balances[_recipient] += _amount;\n        emit Transfer(msg.sender, _recipient, _amount);\n        return true;\n    }\n\n    // Sets `_amount` as the allowance of `_spender` over the caller's tokens.\n    // Returns a boolean value indicating whether the operation succeeded.\n    function approve(address _spender, uint256 _amount) public returns (bool) {\n        _allowances[msg.sender][_spender] = _amount;\n        emit Approval(msg.sender, _spender, _amount);\n        return true;\n    }\n\n    // Returns the remaining number of tokens that `_spender` will be allowed\n    // to spend on behalf of `_owner` through `transferFrom`. This is zero by default.\n    // This value changes when `approve` or `transferFrom` are called.\n    function allowance(address _owner, address _spender) public view returns (uint256) {\n        return _allowances[_owner][_spender];\n    }\n\n    // Moves `_amount` tokens from `_sender` to `_recipient` using the\n    // allowance mechanism. `_amount` is then deducted from the caller's allowance.\n    // Returns a boolean value indicating whether the operation succeeded.\n    // Emits a `Transfer` event.\n    function transferFrom(\n        address _sender,\n        address _recipient,\n        uint256 _amount\n    ) public returns (bool) {\n        require(_balances[_sender] >= _amount, \"ERC20: transfer amount exceeds balance\");\n        require(_allowances[_sender][msg.sender] >= _amount, \"ERC20: transfer amount exceeds allowance\");\n        _balances[_sender] -= _amount;\n        _balances[_recipient] += _amount;\n        _allowances[_sender][msg.sender] -= _amount;\n        emit Transfer(_sender, _recipient, _amount);\n        return true;\n    }\n\n    // Creates `_amount` tokens and assigns them to `_account`, increasing\n    // the total supply.\n    // Emits a `Transfer` event with `_from` set to the zero address.\n    function mint(address _account, uint256 _amount) public onlyOwner returns (bool) {\n        require(_totalSupply + _amount <= _cap, \"ERC20: cap exceeded\");\n        _totalSupply += _amount;\n        _balances[_account] += _amount;\n        emit Transfer(address(0), _account, _amount);\n        return true;\n    }\n\n    // Burns `_amount` tokens from `_account` balance.\n    function burn(address _account, uint256 _amount) public onlyOwner returns (bool) {\n        uint256 _burntAmount = _balances[_account] >= _amount ? _amount : _balances[_account];\n        _totalSupply -= _burntAmount;\n        _balances[_account] -= _burntAmount;\n        emit Transfer(_account, address(0), _amount);\n        return true;\n    }\n\n    // Emitted when `_value` tokens are moved from one account (`_from`) to another (`_to`)\n    event Transfer(address indexed _from, address indexed _to, uint256 _value);\n\n    // Emitted when the allowance of a `_spender` for an `_owner` is set by\n    // a call to `approve`. `_value` is the new allowance.\n    event Approval(address indexed _owner, address indexed _spender, uint256 _value);\n}\n\n",
  "sourcePath": "/Users/itanis/Desktop/projets/Ico-truffle/contracts/FirstErc20.sol",
  "compiler": {
    "name": "solc",
    "version": "0.6.12+commit.27d51765.Linux.g++"
  },
  "schemaVersion": "3.3.1",
  "updatedAt": "2020-12-29T11:54:43.722Z",
  "networkType": "ethereum",
  "devdoc": {
    "kind": "dev",
    "methods": {},
    "version": 1
  },
  "userdoc": {
    "kind": "user",
    "methods": {},
    "version": 1
  }
}